:100000000C94C7000C94E4000C94E4000C94E400FD
:100010000C94E4000C94E4000C94E4000C94E400D0
:100020000C94E4000C94E4000C94E4000C94E400C0
:100030000C94E4000C94E4000C94E4000C94E400B0
:100040000C94E4000C94E4000C94E4000C94E400A0
:100050000C94E40000407A10F35A00A0724E180984
:100060000010A5D4E80000E87648170000E40B541F
:10007000020000CA9A3B000000E1F50500008096EE
:100080009800000040420F000000A0860100000020
:10009000102700000000E8030000000064000000DA
:1000A00000000A00000000000100000000002C76A3
:1000B000D888DC674F0823DFC1DFAE59E1B1B796BE
:1000C000E5E3E453C63AE651997696E8E6C284261B
:1000D000EB898C9B62ED407C6FFCEFBC9C9F40F2F7
:1000E000BAA56FA5F490055A2AF75C936B6CF96773
:1000F0006DC11BFCE0E40D47FEF520E6B500D0ED38
:10010000902E0300943577050080841E080000209F
:100110004E0A000000C80C333333330F986E12833D
:100120001141EF8D2114893BE65516CFFEE6DB1811
:10013000D1844B381BF77C1D901DA4BBE4242032D6
:1001400084725E228100C9F124ECA1E53D27001FE5
:10015000000000001F00001F101010101F00001FE3
:10016000181818181F00001F1C1C1C1C1F00001F43
:100170001E1E1E1E1F00001F1F1F1F1F1F00030724
:100180000F1F0F070300181C1E1F1E1C1800112430
:100190001FBECFE5D4E0DEBFCDBF10E0A0E6B0E0EB
:1001A000EEE1F1E102C005900D92A637B107D9F753
:1001B00020E0A6E7B0E001C01D92AD3CB207E1F738
:1001C0000E9407040C948D080C940000CF92DF92DB
:1001D000EF92FF92CF93DF930E945D048093C20061
:1001E000843209F0AAC10E945D048093C200873462
:1001F00009F0A3C10E945D048093C200803509F01C
:100200009CC10E945D048093C200873409F095C1AF
:100210000E945D048093C200873409F08EC10E9461
:100220005D048093C200813409F087C10E945D049F
:100230008093C2008C3209F080C104C00E945D042A
:100240008093C2008091C2008C32C1F70E945D048D
:100250008093A7008093C20081E090E090937700A4
:100260008093760018C0C0917600D09177000E94EC
:100270005D04C955DF4F88838091760090917700A7
:10028000FC01E955FF4F20812093C2000196909315
:100290007700809376008091C2008C3221F70E9413
:1002A0005D048093C2008C3249F404C00E945D0456
:1002B0008093C2008091C2008C32C1F3C8E9D0E0C3
:1002C0008091C20088830E945D0489838093C2006C
:1002D00082E090E0909377008093760018C0C09100
:1002E0007600D09177000E945D04C856DF4F888366
:1002F0008091760090917700FC01E856FF4F2081B5
:100300002093C200019690937700809376008091AD
:10031000C2008C3221F742E050E068E970E08DE8DD
:1003200090E00E940D0610928F0042E050E06AE9D2
:1003300070E088E790E00E940D0610927A0044E099
:1003400050E06DE970E080E990E00E940D061092A7
:1003500095008DE890E00E94EF05BC01990F880B95
:10036000990B0E94430560937B0070937C008093FF
:100370007D0090937E0088E790E00E94EF05BC012D
:10038000990F880B990B0E9443056093B6007093F8
:10039000B7008093B8009093B90080E990E00E9484
:1003A000EF05BC01990F880B990B0E9443056093E0
:1003B000BA007093BB008093BC009093BD0020E016
:1003C00030E44CE156E40E94CF046B017C0120E054
:1003D00030E040E752E46091B6007091B700809140
:1003E000B8009091B9000E94CF049B01AC01C701F5
:1003F000B6010E94630420917B0030917C00409103
:100400007D0050917E000E9463046093BE00709353
:10041000BF008093C0009093C10061E081E00E9422
:100420004E0388E790E00E94390343E050E067EA1A
:1004300070E089E890E00E940D0610928C0043E085
:1004400050E06AEA70E085E990E00E940D061092A3
:10045000980042E050E06EEA70E08FE790E00E9482
:100460000D061092820089E890E00E94EF05BC0121
:10047000990F880B990B0E94430560937B00709342
:100480007C0080937D0090937E0085E990E00E943F
:10049000EF05BC01990F880B990B0E9443056093EF
:1004A000B6007093B7008093B8009093B9008FE7BF
:1004B00090E00E94EF05BC01990F880B990B0E94F8
:1004C00043056093BA007093BB008093BC00909387
:1004D000BD0020E030E543EC57E40E94CF0420E06B
:1004E00030E040E752E40E94CF046B017C01609150
:1004F000B6007091B7008091B8009091B90020E0EB
:1005000030E040E752E40E94CF049B01AC01C701F8
:10051000B6010E94630420917B0030917C004091E1
:100520007D0050917E000E9463046093840070936C
:1005300085008093860090938700DF91CF91FF9094
:10054000EF90DF90CF900895882324F495B39160C5
:1005500095BB03C095B39E7F95BB86FF04C095B342
:10056000926095BB03C095B39D7F95BB85FF04C08A
:1005700095B3946095BB03C095B39B7F95BB84FFF7
:1005800004C085B3886085BB089585B3877F85BB2C
:100590000895CF93C82F807F0E94A40288B3826001
:1005A00088BB85B3806185BB89EF90E00197F1F747
:1005B00000C0000085B38F7E85BB88B38D7F88BB6C
:1005C00089EF90E00197F1F700C000008C2F829531
:1005D000807F0E94A40288B3826088BB85B380615B
:1005E00085BB89EF90E00197F1F700C0000085B36B
:1005F0008F7E85BB88B38D7F88BB89EF90E00197A4
:10060000F1F700C00000CF910895CF93C82F807FED
:100610000E94A40285B3806185BB89EF90E00197B9
:10062000F1F700C0000085B38F7E85BB89EF90E0B5
:100630000197F1F700C000008C2F8295807F0E9407
:10064000A40285B3806185BB89EF90E00197F1F743
:1006500000C0000085B38F7E85BB89EF90E00197D5
:10066000F1F700C00000CF91089581E00E940503DA
:1006700008950F931F93CF93009761F08C01C0E012
:1006800003C00E94C902CF5FF801EC0FF11D808109
:100690008111F7CFCF911F910F910895623031F002
:1006A000633031F0613029F4805C03C08C5E01C09E
:1006B0008C5A80680E9405030895EF92FF920F9371
:1006C0001F93CF93DF937C01862F90E0880F991FB3
:1006D000880F991F880F991F8064C0E0D0E00DC07B
:1006E000F701EC0FFD1F149101E0080F0E940503B4
:1006F000812F0E94C9022196802FC830D10580F336
:10070000DF91CF911F910F91FF90EF900895CF93BC
:10071000DF9385EA9EE00197F1F700C0000080E0DA
:100720000E94A40288B38D7F88BB88B38B7F88BB6F
:1007300085B38F7E85BB84B3886084BB84B38460BB
:1007400084BB84B3826084BB84B3816084BB87B381
:10075000826087BB87B3846087BB84B3806184BBBE
:1007600080E30E94A40285B3806185BB89EF90E09D
:100770000197F1F700C0000085B38F7E85BB89EF3C
:1007800090E00197F1F700C0000080E30E94A4020E
:1007900085B3806185BB89EF90E00197F1F700C0D8
:1007A000000085B38F7E85BB89EF90E00197F1F75C
:1007B00000C0000080E20E94A40285B3806185BB76
:1007C00089EF90E00197F1F700C0000085B38F7EBC
:1007D00085BB89EF90E00197F1F700C0000088E247
:1007E0000E9405038CE00E94050360E0C0E00AC09F
:1007F000D1E0D60F8C2F90E0825B9E4F0E945D036C
:10080000C85F6D2FC034A0F3DF91CF9108950E948F
:10081000870360E080E00E944E0380E690E00E9443
:1008200039030E945304C0E0D0E003C00E94E600F8
:100830002196C431D105D4F30E9435036091BE00E6
:100840007091BF008091C0009091C10003EC10E056
:1008500026E030E045E050E00E94CF0560E081E016
:100860000E944E0389E690E00E943903C8010E946D
:100870003903609184007091850080918600909189
:10088000870026E030E045E050E00E94CF0561E0BF
:1008900081E00E944E0380E790E00E943903C80186
:1008A0000E943903C0CF8AB188698AB980B5866849
:1008B00080BD83E389B910BC08955F9BFECF8CB1E6
:1008C00090E008955058BB27AA270E947A040C9400
:1008D00095050E94870538F00E948E0520F039F4B6
:1008E0009F3F19F426F40C9484050EF4E095E7FB81
:1008F0000C947E05E92F0E94A60558F3BA176207EB
:1009000073078407950720F079F4A6F50C94C805C1
:100910000EF4E0950B2EBA2FA02D0B01B90190011A
:100920000C01CA01A0011124FF27591B99F0593F5E
:1009300050F4503E68F11A16F040A22F232F342FA6
:100940004427585FF3CF469537952795A795F040F4
:100950005395C9F77EF41F16BA0B620B730B840B09
:10096000BAF09150A1F0FF0FBB1F661F771F881FC1
:10097000C2F70EC0BA0F621F731F841F48F4879519
:1009800077956795B795F7959E3F08F0B0CF93950B
:10099000880F08F09927EE0F9795879508950E9484
:1009A000E3040C9495050E948E0558F00E9487057B
:1009B00040F029F45F3F29F00C947E0551110C940E
:1009C000C9050C9484050E94A60568F39923B1F328
:1009D000552391F3951B550BBB27AA276217730765
:1009E000840738F09F5F5F4F220F331F441FAA1FF9
:1009F000A9F335D00E2E3AF0E0E832D091505040B5
:100A0000E695001CCAF72BD0FE2F29D0660F771F62
:100A1000881FBB1F261737074807AB07B0E809F048
:100A2000BB0B802DBF01FF2793585F4F3AF09E3FCD
:100A3000510578F00C947E050C94C9055F3FE4F3F2
:100A4000983ED4F3869577956795B795F7959F5F10
:100A5000C9F7880F911D9695879597F90895E1E05C
:100A6000660F771F881FBB1F621773078407BA07BB
:100A700020F0621B730B840BBA0BEE1F88F7E09516
:100A80000895E89409C097FB3EF490958095709581
:100A900061957F4F8F4F9F4F9923A9F0F92F96E9CA
:100AA000BB279395F695879577956795B795F1113F
:100AB000F8CFFAF4BB0F11F460FF1BC06F5F7F4FDC
:100AC0008F4F9F4F16C0882311F096E911C07723EE
:100AD00021F09EE8872F762F05C0662371F096E8F7
:100AE000862F70E060E02AF09A95660F771F881FC6
:100AF000DAF7880F9695879597F9089597F99F6784
:100B000080E870E060E008959FEF80EC0895002495
:100B10000A941616170618060906089500240A9462
:100B200012161306140605060895092E0394000CE8
:100B300011F4882352F0BB0F40F4BF2B11F460FF77
:100B400004C06F5F7F4F8F4F9F4F089557FD9058A0
:100B5000440F551F59F05F3F71F04795880F97FB81
:100B6000991F61F09F3F79F087950895121613063B
:100B70001406551FF2CF4695F1DF08C0161617066A
:100B80001806991FF1CF869571056105089408959F
:100B9000E894BB2766277727CB0197F90895EF9252
:100BA0000F931F93CF93DF93E80147FD02C034E01A
:100BB00001C034E1042E000C550B57FF03C05195C2
:100BC00041955109E32E022F242FAE010E942406E5
:100BD000CE01DF91CF911F910F91EF900895FC010D
:100BE00088279927E89421912032E9F3293010F0E1
:100BF0002E30C8F32B3241F02D3239F4689404C002
:100C00000E941C06820F911D219120532A30C0F3AF
:100C10001EF4909581959F4F0895FB01DC01415092
:100C2000504048F001900D920020C9F701C01D927C
:100C300041505040E0F708957AE0979F902D879FAC
:100C4000802D910D11240895A9E0B0E0EAE2F6E0CC
:100C50000C945C086A01122FB02E2BE3201720F0B1
:100C6000FF24F394F00E02C02CE3F22E0F2D27E0A8
:100C7000AE014F5F5F4F0E947E07BC014981842F08
:100C80008970813031F0E1FC06C0E0FE06C090E2E0
:100C900005C09DE203C09BE201C090E05E2D507153
:100CA00043FF3CC0911102C083E001C084E0811782
:100CB00018F4212F281B01C020E051110BC0F601B0
:100CC000822F30E2882319F031938150FBCFC20E7E
:100CD000D11C20E0992329F0D6019C93F60131968E
:100CE0006F01C6010396E2FE0AC03EE4D6013C93C2
:100CF00041E411964C93119712963C9306C03EE640
:100D0000F601308341E641833283FC01322F40E219
:100D1000332309F442C041933150FACF42FF44C01B
:100D2000911102C083E001C084E0811718F4212FE3
:100D3000281B01C020E051110BC0F601822F30E2C8
:100D4000882319F031938150FBCFC20ED11C20E0D3
:100D5000992329F0D6019C93F60131966F01C601C3
:100D60000396E2FE0BC039E4D6013C933EE41196B3
:100D70003C93119736E412963C9307C039E6F6018E
:100D800030833EE6318336E63283FC01322F40E287
:100D9000332319F041933150FBCFFC01E20FF11DD9
:100DA00010828EEF9FEFA6C021E030E0911102C0CB
:100DB00020E030E0161617061CF4FB01319602C045
:100DC000E1E0F0E02E0F3F1FBB2021F0EB2DF0E023
:100DD000319602C0E0E0F0E02E0F3F1FE12FF0E07F
:100DE0002E173F071CF4121B212F01C020E08E2D6F
:100DF000887159F4F601822F30E2882319F031937B
:100E00008150FBCFC20ED11C20E0992329F0D601DE
:100E10009C93F60131966F0151110BC0F601822FA0
:100E200090E3882319F091938150FBCFC20ED11C1F
:100E300020E00F2D060F9A81342F307144FF03C03C
:100E4000913309F40150101624F4093018F008E029
:100E500001C001E0AB0177FF02C040E050E0FB01C0
:100E6000E41BF50BA1E0B0E0AC0FBD1FEA0FFB1FC8
:100E70008EE2A82E4B01801A91080B2D10E01195DF
:100E8000019511094F3FBFEF5B0721F4D601AC92EA
:100E900011966D01641775072CF08416950614F4ED
:100EA000818101C080E3415051093196D6011196EC
:100EB0007D014017510724F0D6018C936701E2CFE2
:100EC0006417750739F4963320F4953319F431110A
:100ED00001C081E3F6018083F701822F90E288232D
:100EE00019F091938150FBCFF701E20FF11D1082B1
:100EF00080E090E02996ECE00C947808283008F027
:100F000027E03327DA01990F311D87FD91600096A4
:100F10006105710539F432602E5F3D9330E32A9507
:100F2000E1F708959F3F30F080387105610509F0C1
:100F30003C5F3C5F3D93913008F08068911DDF93EA
:100F4000CF931F930F93FF92EF92192F987F96954F
:100F5000E92F96959695E90FFF27E255FF4F9927C0
:100F60003327EE24FF24A701E70105900894079496
:100F700028F4360FE71EF81E491F511D660F771F14
:100F8000881F991F0694A1F70590079428F4E70E8F
:100F9000F81E491F561FC11D770F881F991F661F16
:100FA0000694A1F70590079428F4F80E491F561FE0
:100FB000C71FD11D880F991F661F771F0694A1F7C1
:100FC0000590079420F4490F561FC71FD81F990F8B
:100FD000661F771F881F0694A9F7849110951770D4
:100FE00041F0D695C79557954795F794E7941A958C
:100FF000C1F7E4E5F0E0689415901591359165919D
:10100000959105907FE27395E118F10A430B560B19
:10101000C90BD009C0F7E10CF11E431F561FC91FB1
:10102000D01D7EF4703311F48A95E6CFE894015018
:1010300030F0080F0AF40027021708F4202F239538
:10104000022F7A3328F079E37D932A95E9F710C0CF
:101050007D932A9589F60694979567953795179508
:101060001794E118F10A430B560BC90BD00998F0FD
:1010700023957E9173957A3308F070E37C93201367
:10108000B8F77E9170617D9330F0839571E37D9325
:1010900070E32A95E1F71124EF90FF900F911F91D3
:1010A000CF91DF91992787FD909508952F923F92D8
:1010B0004F925F926F927F928F929F92AF92BF9268
:1010C000CF92DF92EF92FF920F931F93CF93DF9314
:1010D000CDB7DEB7CA1BDB0B0FB6F894DEBF0FBE71
:1010E000CDBF09942A88398848885F846E847D84BE
:1010F0008C849B84AA84B984C884DF80EE80FD80C0
:101100000C811B81AA81B981CE0FD11D0FB6F89435
:0E111000DEBF0FBECDBFED010895F894FFCFF6
:10111E00204750532E2E2E2000204C6F6E673A0023
:06112E004C61743A000060
:00000001FF
